:10000000A0230020AD460000FFC600009946000076
:100010009946000099460000994600009946000064
:1000200000000000000000000000000099470000F0
:100030009946000000000000294700009946000092
:100040006D4900006D4900006D4900006D490000D8
:100050006D4900006D4900006D4900006D490000C8
:100060006D4900006D4900006D4900006D490000B8
:100070006D4900006D4900006D4900006D490000A8
:100080006D4900006D4900006D4900006D49000098
:100090006D4900006D4900006D4900006D49000088
:1000A0006D4900006D4900006D4900006D49000078
:1000B0006D4900006D4900006D4900006D49000068
:1000C0006D4900006D4900006D4900006D49000058
:1000D0006D4900006D4900006D4900006D49000048
:1000E0006D4900006D4900006D4900006D49000038
:1000F0006D4900006D4900006D4900006D49000028
:100100006D4900006D4900006D4900006D49000017
:100110006D4900006D4900006D4900006D49000007
:100120006D4900006D4900006D4900006D490000F7
:100130006D4900006D4900006D4900006D490000E7
:100140006D4900006D4900006D4900006D490000D7
:040150006D490000F5
:10015400844641EA000313F0030349D1403A23D310
:100164000B6803604B6843608B688360CB68C36033
:100174000B6903614B6943618B698361CB69C3611B
:100184000B6A03624B6A43628B6A8362CB6AC36203
:100194000B6B03634B6B43638B6B8363CB6BC363EB
:1001A40040304031403ADBD230320BD30B6803602D
:1001B4004B6843608B688360CB68C3601030103138
:1001C400103AF3D20C3205D351F8043B40F8043B07
:1001D400043AF9D2043208D0D2071CBF11F8013B0B
:1001E40000F8013B01D30B8803806046704700BFD1
:1001F400082A13D38B07B1D010F00303AED0C3F198
:100204000403D21ADB071CBF11F8013B00F8013BC1
:10021400A4D331F8023B20F8023B9FE7043AD9D338
:10022400013A11F8013B00F8013BF9D20B78037055
:100234004B7843708B7883706046704753B94AB9E2
:10024400002908BF00281CBF4FF0FF314FF0FF30DA
:1002540000F00CB8ADF1080C6DE904CE00F008F81C
:10026400DDF804E0DDE9022304B07047704700BF05
:100274002DE9F04786468C460846089E1546744686
:100284001946002B40F0C1808542B2FA82F245D96A
:100294004AB1C2F1200300FA02FC954094402EFAC0
:1002A40003F343EA0C0C4FEA154EA8B2230CBCFB33
:1002B400FEF80EFB18CC08FB00F943EA0C43994501
:1002C40028D9EB1808F1FF3704D2994502D9A8F1CF
:1002D40002072B44A3EB0903A4B2B3FBFEFC0EFB01
:1002E4001C330CFB00F044EA0344A04214D92C193B
:1002F4000CF1FF3304D2A04202D9ACF102032C4426
:10030400241A43EA07401EB1D440002334607360CA
:10031400BDE8F0874746DDE76346F1E792BB431B40
:1003240001214FEA154EAFB2200CB3FBFEFC0EFBCD
:100334001C330CFB07F840EA0343984561D9EB18DA
:100344000CF1FF3004D2984502D9ACF102002B44E1
:10035400A3EB0803A4B2B3FBFEFC0EFB1C330CFBA3
:1003640007F744EA0344A7424DD92C190CF1FF3393
:1003740004D2A74202D9ACF102032C44E41B43EAA1
:100384000040C0E7C2F120039540944020FA03F1F5
:100394002EFA03F34FEA154E9040AFB20343B1FB7C
:1003A400FEFC0EFB1C10190C0CFB07F841EA004183
:1003B400884522D969180CF1FF3004D2884502D946
:1003C400ACF102002944A1EB08019BB2B1FBFEFC95
:1003D4000EFB1C110CFB07F743EA01439F420ED9A5
:1003E400EB180CF1FF3104D29F4202D9ACF10201A7
:1003F4002B44DB1B41EA004193E76046E3E7614697
:10040400F7E76046A4E76346B8E7834206D916B91E
:10041400002108467CE7C6E900E0F9E7B3FA83F770
:100424008FB9834201D3724508D8BEEB020460EB56
:10043400030301209C461EB9002169E73846FAE708
:10044400C6E9004CF8E7C7F1200CBB400EFA07F5EB
:1004540022FA0CF42EFA0CF1BA401C4320FA0CF3E5
:10046400B8404FEA144901431FFA84FEB3FBF9F87C
:1004740009FB18300B0C08FB0EFA43EA00439A45BB
:1004840040D9E31808F1FF3004D29A4502D9A8F103
:1004940002002344A3EB0A0389B2B3FBF9F809FB76
:1004A400183308FB0EFE41EA03418E452CD961182E
:1004B40008F1FF3304D28E4502D9A8F10203214486
:1004C40043EA0040A1EB0E01A0FB02984145CE4651
:1004D400434602D306D14D4504D20138B9EB020E8E
:1004E40068EB0403002EA7D0B5EB0E0261EB030109
:1004F40001FA0CFC22FA07F3F9404CEA0303C6E9BB
:10050400003199E74046C5E74346D9E72DE9F04174
:1005140084B002AF7D480BF029FB00F0F3FB002808
:1005240000F0BD8004466D4600233B7102237B71BD
:1005340088B00DF1080C1CF1100214D00E2022B169
:10054400042802DD724BCCF8143000233B700223E4
:100554007B70AAB1082802DD6E4BCCF818300CF180
:100564001C0300210AE06FF00040E8E701F10806EF
:100574003E4416F8086C03F8016B01310129F5D9E2
:100584000D2835DD0E234AB103213971002179711B
:10059400B9710121F9717868CCF8100000216FF36A
:1005A40000016FF341016FF382016FF3C50101266E
:1005B40066F38811C3F30A0363F353216FF31F51E6
:1005C400DFF854810023404603F048F8AD461A236F
:1005D40000932346514A314640460BF0A7FF0023BF
:1005E40083F31188BFF36F8F0323184602DF56E0AD
:1005F4006FF01B03C7E71F220092484A01214648B7
:100604000BF094FF002383F31188BFF36F8F032350
:10061400184602DF4AE023220092404A01213E4864
:100624000BF084FF002383F31188BFF36F8F032340
:10063400184602DF46E027220092384A0121364854
:100644000BF074FF002383F31188BFF36F8F032330
:10065400184602DF42E02B220092304A01212E4844
:100664000BF064FF002383F31188BFF36F8F032320
:10067400184602DF3EE02F220092284A0121264834
:100684000BF054FF002383F31188BFF36F8F032310
:10069400184602DF4FF40040002109F04DFD01210E
:1006A400002000F0FDFA03460028A4D14FF40040D6
:1006B400002109F041FD0221002000F0F1FA034677
:1006C4000028A8D14FF40040002109F035FD042191
:1006D400002000F0E5FA03460028ACD14FF40040B6
:1006E400002109F029FD0721002000F0D9FA034672
:1006F4000028B0D14FF40040002109F01DFD002076
:100704000BF096F903460028B5D1C3E798E700003B
:10071400BCE70000C0E7000030E70000E4E70000A9
:1007240010B543681C68012303FA01F10C4204D09C
:100734009AB18368DB68984710BD0A4C40F2636342
:100744002246094909480BF007FC09480BF004FC50
:1007540040F2636120460BF0F6FB83681B699847FF
:10076400EAE700BF10E8000044E8000084E8000065
:10077400A4E8000038B5436805691C6801238B4070
:100784001C4208D02C68234202D0B2FA82F25209E9
:10079400FFF7C6FF38BD084C40F28C632246074978
:1007A40007480BF0D9FB07480BF0D6FB40F28C61ED
:1007B40020460BF0C8FB00BF10E8000044E800002E
:1007C40084E80000A4E8000070B505460E4600EB7E
:1007D4008002254B03EB82035B78002B3FD151B1A0
:1007E400214B03EB82056B68012219791868FFF726
:1007F400C1FF034636E000EB80051B4B03EB850588
:100804006B68002219791868FFF7B4FF034629E0E2
:1008140005EB85022244144B03EB82035B68002240
:1008240019791868FFF7A6FF0346D8B90134E4B272
:10083400022C16D826FA04F313F0010FE8D005EBC6
:1008440085022244084B03EB82035B680122197979
:100854001868FFF78FFF03460028E7D002E0002462
:10086400E6E70023184670BDA00B00200A4B1B7856
:1008740073B170B504460D461646FFF7A5FF30B9AF
:10088400064B04EB840203EB82021674557470BDAC
:100894004FF0FF30704700BF550E0020A00B002022
:1008A400F8B586684768046912F0FC6F33D11346C3
:1008B40002F03002302A3ED0504A1A40504DAA422B
:1008C40049D003F00602042A55D013F4402202D082
:1008D40013F4003F5CD0B2F5402F69D013F4801FAD
:1008E40005D022B113F0010F01D083F4402323F487
:1008F40080123D684FF0010C0CFA01FC15EA0C0F54
:1009040066D013F0010F73D023684CEA030323600D
:1009140033689847F8BD3B4C40F2DE3322463A49EF
:100924003A480BF019FB3A480BF016FB40F2DE3163
:1009340020460BF008FB334C40F2E13322463549A4
:1009440032480BF009FB34480BF006FB40F2E1316E
:1009540020460BF0F8FA2B4C40F2E53322462F499F
:100964002A480BF0F9FA2E480BF0F6FA40F2E5317A
:1009740020460BF0E8FA234C4FF47A7322462949B7
:1009840022480BF0E9FA4FF47A7120460BF0DBFAB7
:100994001C4C40F2EB33224623491C480BF0DCFA92
:1009A40022480BF0D9FA40F2EB3120460BF0CBFA97
:1009B400144C40F2EF3322461D4914480BF0CCFA94
:1009C4001C480BF0C9FA40F2EF3120460BF0BBFA99
:1009D4000C4C40F2FB33224617490C480BF0BCFA8E
:1009E40016480BF0B9FA40F2FB3120460BF0ABFA93
:1009F400236823EA0C0323608AE700BF0200030094
:100A04000200010010E80000B8E8000084E80000DB
:100A140018E900003CE9000078E90000B8E90000AA
:100A240000EA000050EA000084EA0000CCEA00007A
:100A340008EB00004CEB000044E80000A4E80000D0
:100A440010B582B0002408E000212046FFF7BCFE68
:100A5400034600282BD10134E4B2204B1B78A34277
:100A640035D904EB84021E4B03EB82031B7C002B61
:100A7400F1D01C4B1B78002BE6D0194B03EB8203FF
:100A8400597C2046FFF7A0FE03460028E3D0CB2282
:100A94000092154A012115480BF048FD002383F309
:100AA4001188BFF36F8F0323184602DFD3E7CE22EA
:100AB40000920D4A01210D480BF038FD002383F309
:100AC4001188BFF36F8F0323184602DFC3E7054A7B
:100AD400137883F00103137002B010BD560E00208A
:100AE400A00B0020540E0020E4E7000010E70000F3
:100AF40008B5024808F086FA08BD00BF900200203D
:100B040070B504460D461646104B53F832000DF0EE
:100B140068FA90B10D4800EBC6000D4B04EB840459
:100B2400254403EB8505686003EB840301225A70B6
:100B34004FF4B0110AF071FF70BD064A0121064856
:100B44000BF0DFFC6FF01200F6E700BF54EC00007E
:100B5400A00B002078EB000010E7000038B5044635
:100B64000D460F4B53F831000DF03BFA80B10C48A1
:100B740000EBC5000B4B04EB840203EB82025060D4
:100B8400134600225A704FF4B0110AF046FF38BDE4
:100B9400054A012105480BF0B4FC6FF01200F6E79A
:100BA40054EC0000A00B002078EB000010E70000DC
:100BB40070B584B0002416E0304A012130480BF0AF
:100BC400A0FC6FF0050355E02E4928460AF036FDD7
:100BD40050B322460121F0B2FFF792FF03460028EA
:100BE40048D10134E4B2284B1B78A34241D90023F5
:100BF4000393264B53F824500A2203A928460AF0EB
:100C040067FE0646039B9D42D6D0214928460AF03A
:100C140015FD0028D8D022460021F0B2FFF770FF5E
:100C240003460028DDD025E01A4928460AF006FDCF
:100C340040B122460221F0B2FFF762FF03460028CA
:100C4400CFD017E0144928460AF0F8FC38B1214601
:100C5400F0B2FFF783FF03460028C2D00AE00096F3
:100C640023460E4A012106480BF060FC6FF0120384
:100C740000E00023184604B070BD00BF98EB0000EC
:100C840010E70000E4EB0000560E002038ED0000F1
:100C9400D8EB0000F4EB000004EC000010EC0000C2
:100CA4000FB400B583B09DF8100000EB8002124B26
:100CB40003EB82035B7883B105AB019306AB01932D
:100CC40005994B1E062B0DD80022C9B2FFF7CEFDA5
:100CD40003B05DF804EB04B0704700220721FFF76E
:100CE400C5FDF5E70B46054A012105480BF013FC49
:100CF4006FF01500ECE700BFA00B00203CEC0000F7
:100D040010E7000010B582B00D4B1B78ABB90D4B4A
:100D140009221A70FFF74CFF044610B1204602B0B6
:100D240010BD4FF480420023CDE9002306480AF0A9
:100D340083F9034B01221A70F0E74FF0FF34EDE71B
:100D4400550E0020560E0020B0030020F8B540B127
:100D5400064603784578847804EB8304044400272A
:100D640011E00B4CC62322460A490B480BF0F4F859
:100D7400C62120460BF0E7F8013420460AF0CCFAED
:100D8400013004440137AF42F6D3A01BF8BD00BFC5
:100D94005CED00008CED000084E800002DE9F04FCC
:100DA40091B005920393134602F004020092C3F338
:100DB400C20210F00303019340F06E8280468A461B
:100DC4000132041D002850D0B8F1000F05D0A4EB67
:100DD40008030433534500F26282039B5D1E019BAA
:100DE40004930693029300264FF0FF3B0427B94671
:100DF400B8F1000F01D0039B2360531E0793002A10
:100E040040F35F81059B13F0020229D00120A4EB7B
:100E140008018B081AB1B1F5007F80F06681029A4F
:100E24000F2A00F27281B8F1000F00F08281DBB268
:100E3400029901F140026A4402F8103C02F820BC15
:100E4400002800F0728163F07F0301F140026A44DC
:100E540002F8103C049B01330493029B0133029378
:100E640004340022CC4640463DE001F0070A5444D5
:100E7400CAF1080AA8E7002634E0002632E000267A
:100E840030E00827BC462DE025292BD10BF1010BBE
:100E940001260427BC4625E04729EED82A2914D385
:100EA4002A39C9B24FF0010E0EFA01F14FF6DA7E7B
:100EB40011EA0E0F16D111F0625F40F0C18011F0FB
:100EC400010F40F08D8000260CE0252903D10BF1A1
:100ED400FF3B002606E001D9002603E0202901D0CB
:100EE4002329CCD11D466B1C6978002900F04C8164
:100EF400002EC9D07A29BED84C29CDD34C392E29FD
:100F040062D80FF2080E5EF821F000BFE90E00006F
:100F1400CD0F0000CD0F0000CD0F0000CD0F00005D
:100F2400CD0F0000CD0F0000CD0F0000CD0F00004D
:100F3400CD0F0000CD0F0000CD0F0000DD0F00002D
:100F4400CD0F0000CD0F0000CD0F0000CD0F00002D
:100F5400CD0F0000CD0F0000CD0F0000CD0F00001D
:100F640045100000CD0F0000DD0F0000DD0F000074
:100F7400451000004510000045100000E90E000077
:100F8400DD0F0000870E0000CD0F0000E90E000009
:100F9400CD0F0000A1100000DD0F0000A110000023
:100FA400CD0F0000CD0F0000A9100000D70F0000E6
:100FB400DD0F0000CD0F0000CD0F0000DD0F00009D
:100FC400CD0F0000D10F000000268BE70427BC469C
:100FD40088E70427BC4685E729786C2924D00026B5
:100FE4003C44013CB4FBF7F407FB04F420B1211AA0
:100FF4006144514500F25681002A58D1BCF1040FD6
:1010040000F0A880BCF1080F40F0AC801A990731B9
:1010140021F0070101F108051A95D1E9008908B109
:10102400C4E9008908345DE713F8021C6C2903D075
:1010340000260427BC46D3E700260827BC46CFE792
:1010440029784C291AD01A99073121F0070101F1A6
:1010540008061A96D1E90067073424F0070440B162
:10106400211A0831514513D829784C2913D0C4E9E1
:101074000067083400260827BC4633E71A9907316D
:1010840021F0070101F108061A96D1E90067E3E7A8
:101094006FF01B00FDE0C4E90067EAE700260427BF
:1010A400BC469DE7324600260427BC4698E7E14645
:1010B40080461A9A111D1A9112680392079A1D46C6
:1010C40096E67D4B039A9A4204D37C4B9A420AD308
:1010D400002300E00023002B7FF494AE059B03F073
:1010E4000202002093E60123F5E7754C4FF41F73C9
:1010F4002246744974480AF02FFF74480AF02CFF02
:101104004FF41F7120460AF01EFF6D4C40F28123FC
:1011140022466C496C480AF01FFF6D480AF01CFF18
:1011240040F2812120460AF00EFF069B013306930C
:1011340093E610B10AF1010A8FE6009B13B10AF19C
:10114400020A8AE603980AF0E7F80AEB000303F1BF
:10115400020A82E61A990D1D1A95096800B12160E8
:101164000434BFE6E146564C40F2C62322465549B4
:1011740055480AF0F1FE494656480AF0EDFE40F2A1
:10118400C62120460AF0DFFE8046231AB3F5806F9D
:1011940013D210B3002202609B080370009B03B3B8
:1011A400069BC370049B88F802309BBB019DDDF84D
:1011B4000890DDF810B0039F4DE0414C40F2D2237B
:1011C4002246404940480AF0C7FE43480AF0C4FE9C
:1011D40040F2D22120460AF0B6FE5344A3F108009F
:1011E40057E0069B4370DDE701339842DED903F1F3
:1011F40040026A4412F8101C12F9102C002AF3DA87
:1012040001F07F01A4EB0802013252454DD804F8E5
:10121400011BE9E7019B0298E7E7009B43B305F153
:1012240040036B4413F8203C04F8013B019EA4EBFB
:1012340008033344013353453AD805F140036B4462
:1012440013F8103C04F8013B324639462046FEF7B9
:101254007FFF34440135A94519D9BBF1000FDCD017
:1012640005F140036B4413F9103C002BD5DAF1E788
:1012740005F140036B4413F8103C58F82370002226
:1012840048F8232038460AF047F8461CCFE7A4EB79
:10129400080011B0BDE8F08F6FF00D00F9E76FF0B2
:1012A4001B00F6E76FF01B00F3E76FF01B00F0E79D
:1012B4006FF01B00EDE700BF48E3000008130100D6
:1012C4005CED0000C8EA000084E80000A4ED000022
:1012D400C8ED0000E4ED0000FCED00002DE9F04F46
:1012E40097B000AF39617A617862B0B19B46D7F8A4
:1012F4008030C3F3C003FB613B69DBB17B6A93F8C5
:101304000280C7F80C80B8F1000F18D0D7F88030ED
:1013140013F0010F1FD1002312E0A74C40F29933C0
:101324002246A649A6480AF017FE40F29931204603
:101334000AF009FE786AFFF709FD3861DEE7002349
:101344007A6AD2783A6242B1D7F8802012F0020F5A
:1013540022D1002202E00123F2E7002202B9EBB11C
:10136400796A0D78AA00BA600A464968B96102EB45
:1013740085057A69FAB1002B40F00581FB68002BE2
:1013840000F01081D7F8803013F0040F40F00E8184
:10139400002082468046FAE00122DFE77B691BB128
:1013A4005A463969786A9847D7F8109048465C37A6
:1013B400BD46BDE8F08FD7F81090E3B9FB681D4433
:1013C4004FF0000B22E081440135013444451CD226
:1013D4002A7800235AF82220194678690AF03CFB3F
:1013E400002EF0D0D7F888309B45ECD226F81B00AD
:1013F4000BF1010BE7E70024A346D7F80C803E610C
:10140400D7F824A0D7F88460E0E73E69D7F88030A5
:1014140003F00503FB604FF0000AC7F810B0B346B1
:101424009CE00025FB697BB9002D79D0D7F880308A
:1014340013F0010F79D1FB68002B6FD10223A9EBC4
:10144400030988E00125EDE74146B8690AF04AFB43
:101454000028E9D06D46002387F82C30022387F852
:101464002D308AB0694611F1100237D012261AB114
:10147400042E01DD534B4B61002387F828300223EF
:1014840087F829306ABB112E45DD122362B104208E
:1014940087F82C00002087F82D0087F82E00012003
:1014A40087F82F00F86A08616FF3000B6FF3410BA4
:1014B4006FF3820B6FF3C50B022161F3881BC3F337
:1014C4000A0363F3532B6FF31F5B002359463E4813
:1014D40002F0C4F8AD46A9F102093CE06FF0004601
:1014E400C5E73346082E01DDB86988610C2B01DDA0
:1014F400C1F81C8001F12003002009E000F1300C48
:1015040007F1280EF4441CF830CC03F801CB013069
:101514000128F3D9B7E76FF01B03B7E701238EE780
:10152400D7F8803013F0020F15D000233246194645
:1015340078690AF091FAD7F8843053B13B69D7F847
:101544008820934205D2D7F8842022F8130001336F
:101554003B61013881440AF1010A25463B6A9A45F8
:10156400BFF424AF2C4614F8028B6B787A6A52F8D5
:101574002360164B9E42FFF454AF154B9E42FFF47A
:1015840061AF00254EE707F144004FF0000A18B19F
:10159400FA682946FEF7DCFDFB681D440026C7F8FF
:1015A40004B032E0002082468046F0E7C24607F1EC
:1015B40034004FF00008EAE75CED000014EE000090
:1015C40084E8000030EE0000F8E6000048E3000084
:1015D400081301000025FB696BBB002D61D0D7F80F
:1015E400803013F0010F3AD0B8F10F0F2AD808F168
:1015F400010308F1300207F1280102EB010808F8A1
:10160400149C5FFA83F8013625463B6A9E4280F0BB
:101614008E802C4614F802BB95F801907B6A53F82F
:1016240029308A4A9342D5D3894A934201D300256B
:10163400D1E70125CFE75946B8690AF053FA0028E3
:10164400CBD0E0E7834C40F24343224682498348AF
:101654000AF082FC40F2434120460AF074FCD7F8B9
:10166400803013F0040FCED0BAF10F0F0CD80AF16A
:1016740001030AF1300207F1280102EB010A0AF81A
:10168400249C5FFA83FABEE7724C40F2464322463A
:10169400734972480AF060FC40F2464120460AF061
:1016A40052FCD7F8803013F0020F1CD0B8F10F0FA2
:1016B4000CD808F1010308F1300207F1280102EB0C
:1016C400010808F8149C5FFA83F89CE7614C40F227
:1016D4004D432246604961480AF03EFC40F24D41C8
:1016E40020460AF030FCBAF10F0F13D80AF10103B7
:1016F4000AF1300207F128010A4402F824BC0AF175
:10170400020A5FFA8AFA07F1580252FA83F303F8DD
:10171400249C78E74F4C4FF48A63224650494F4843
:101724000AF01AFC4FF48A6120460AF00CFCD7F840
:1017340004B07A6A137887F854305378434487F8AE
:101744005530D7F8803013F0020F0DD1CAF3470398
:1017540087F85730D7F8803013F0010F06D113F013
:10176400040F31D1002302E00023F1E7002387F8BE
:1017740056307C6A20683863786D20605A46B968B0
:1017840020467E69B047B0F10009FFF60FAE386B12
:1017940020605A46514607F13400B04700284EDB1A
:1017A40009EB0004FA68BB681A443B6A02EB430184
:1017B4005A463B69591A2846B047B0F10009FFF66A
:1017C400F5AD4C44002518E05346D0E74FF000092E
:1017D40001E04FF000095A46012107F12C00B047FF
:1017E40000282EDB04444B465246594630460AF044
:1017F40033F9002827DB04440135454518D205F1A7
:10180400300307F12802134413F8143C87F82C30F2
:101814007A6A52F823A0D7F88430002BD6D0D7F8B0
:1018240088309D42D5D2D7F8843033F81590D2E76A
:101834005A46002108467B699847A146B6E5814689
:10184400B4E58146B2E58146B0E500BF48E3000057
:10185400081301005CED0000D4EE000084E80000F1
:10186400F4EE0000014B1860704700BFA002002096
:1018740010B586B0044603900491002105910091AF
:1018840003A9064800F0DAF8059B049A934201DAAA
:101894000022E254059806B010BD00BF3BBB000017
:1018A40084460268002006E000EB8000013203EB6E
:1018B4004003A3F1300013780349C95C11F0040F0D
:1018C400F2D1CCF800207047051201008446084686
:1018D400012226E09CF8003043F004038CF8003029
:1018E400F2B101301CE09CF8003043F008038CF89E
:1018F4000030F5E79CF8003043F010038CF800301A
:10190400EEE79CF8003043F020038CF80030E7E762
:101914009CF8003043F040038CF80030E0E70022EC
:1019240042B30378203B102BF9D801A151F823F0DE
:10193400F9180000231900002319000007190000FA
:1019440023190000231900002319000023190000A3
:10195400231900002319000023190000EB180000CC
:1019640023190000D91800002319000023190000CE
:10197400151900009CF8003003F04403442B00D0F8
:1019840070479CF800306FF386138CF80030F7E74B
:101994002DE9F84F05460C46934699460A9ED078A1
:1019A400254B13F800A00AF0030A0AF080FA074650
:1019B40014E0BAF1010F20D0D2B25732D2B2327051
:1019C4003A46434628462146FEF738FCBD4274F1A8
:1019D400000416D34E4514D905460C464FF00008B2
:1019E4003A46434628462146FEF728FC013E092A8A
:1019F400DFD8D2B23032D2B2E1E7D2B23732D2B289
:101A0400DDE79BF8003013F0200F03D0082F04D03B
:101A1400102F09D03046BDE8F88F9BF8023043F010
:101A240008038BF80230F5E79BF8023043F010030B
:101A34008BF80230EEE700BF051201002DE9F04FEC
:101A440091B006460D4691460393002499F8000090
:101A5400002800F0B982252808D02946B04700287C
:101A6400C0F2B382013409F10109EFE700230493C2
:101A740005930693079308930993494606A80AF029
:101A8400F4F902909DF8193013F0010F00F09780DB
:101A9400039B1A1D03921F68002FC0F288809DF8D3
:101AA400193013F0040F00F09C80039B1A1D03925D
:101AB400D3F800A0BAF1000FC0F28A800023079384
:101AC40008939DF81A3003F007039DF81910C1F329
:101AD400C301012B00F08E80022B00F0D380042B75
:101AE40000F02481032B00F03B819DF8188018F04E
:101AF400030B40F03B819DF81B30253B532B00F238
:101B0400CA81DFE813F04001C801C801C801C80157
:101B1400C801C801C801C801C801C801C801C80179
:101B2400C801C801C801C801C801C801C801C80169
:101B3400C801C801C801C801C801C801C801C80159
:101B4400C801C801C801C801C801C801C801C80149
:101B5400C801C801C801C801C801C801C801C80139
:101B6400C801C801C801C801C801C8019D01C80154
:101B7400C801C801C801C801C801C801C801C80119
:101B8400C8017A018301C801C801C801C8018301E1
:101B9400C801C801C801C801BD019D015E01C80199
:101BA400C8014D01C8019D01C801C8019D019DF8EE
:101BB400183043F004038DF818307F426FE79DF925
:101BC4001830002B02DB4FF0FF3768E7079F66E70A
:101BD4009DF819306FF341038DF819304FF0FF3A37
:101BE4006CE713F0020F02D0DDF820A066E74FF097
:101BF400FF3A63E7CB1E042B04D8DFE803F00B1D88
:101C040029353500039B1A1D03921B68DA170493C8
:101C1400059206E0039B1A1D03921B68DA170493CE
:101C24000592012928D002297FF45FAFBDF9103055
:101C3400DA170493059258E7039B073323F007034D
:101C440003F108020392D3E90023CDE90423E8E772
:101C5400039B073323F0070303F108020392D3E93C
:101C64000023CDE90423DCE7039B1A1D03921B68C0
:101C7400DA1704930592D4E79DF91030DA17049328
:101C8400059232E7CB1E042B04D8DFE803F00B1FC8
:101C940035414100039B1A1D03921B6804930023E2
:101CA40005931EE09DF81B30632B07D0039B1A1D80
:101CB40003921B6804930023059312E0039B1A1DEF
:101CC40003921B680493002305930AE0039B0733E4
:101CD40023F0070303F108020392D3E90023CDE9BB
:101CE400042301291CD002297FF4FFAEBDF8103073
:101CF400049300230593F8E6039B073323F00703BB
:101D040003F108020392D3E90023CDE90423E8E7B1
:101D1400039B1A1D03921B68049300230593E0E7B9
:101D24009DF81030049300230593DEE608290BD0B8
:101D3400039B073323F0070303F108020392D3E95B
:101D44000023CDE90423D0E6039B073323F00703E4
:101D540003F108020392D3E90023CDE90423C4E686
:101D6400039B1A1D03921B680493BEE6029F3B4625
:101D74004A46294630460AF0CEF80028C0F22581AA
:101D84000444B94662E629462520B0470028C0F23B
:101D94001C810134D8460DF13E0A4FF000097FE062
:101DA400DDF81090BAF1000F06DA484609F0B4FAEB
:101DB40009EB000AD84673E05146484609F0DAFABE
:101DC400F6E7049828B9D846DFF804A2AAF1050971
:101DD40066E00DF13E0300930AAB06AA0021FFF76B
:101DE400D7FD81469DF81A3043F010038DF81A3060
:101DF40078238DF81B30D8462DE0049B8DF82830CD
:101E0400D8460DF1290A0DF1280949E018F0080F08
:101E140005D118F0100804D04FF0200801E04FF06D
:101E24002B08049A059B002B02DB0492059308E01F
:101E3400524263EB4303049205934FF02D0800E0F4
:101E4400D8460DF13E0300930AAB06AADDE904016E
:101E5400FFF79EFD8146BAF1000F50DB0DF13E0302
:101E6400A3EB09039DF818206FF386128DF8182050
:101E74009A4547D9AAEB030307930DF13E0A0FE0F5
:101E84002246049906A80AF027F8D8460DF13E0A1E
:101E94004FF0000904E0D8460DF13E0A4FF0000966
:101EA400B9F1000F00F08D80AAEB0902B8F1000F20
:101EB40000D001329DF81A1011F0100F25D0023213
:101EC400079B134411F0400F01D0089A1344002FCC
:101ED40031DDFF1A9DF8183013F0040F2BD113F0E5
:101EE400400F17D0B8F1000F17D029464046B0472D
:101EF40000286ADB0134D8464FF0300B0FE00DF1B7
:101F04003E0ACDE70DF13E0ACAE711F0080FD7D01B
:101F14000132D5E74FF0200B01E04FF0300B3B4688
:101F24005F1E002B07DD29465846B04700284CDBCE
:101F340001343B46F4E7B8F1000F05D0294640468A
:101F4400B047002841DB01349DF81A30C3F3001276
:101F5400C3F3C0031A4305D029463020B0470028F4
:101F640033DB01349DF81A3013F0100F06D02946E4
:101F74009DF81B00B047002827DB0134079B03F1C1
:101F8400FF38002B07DD29463020B04700281CDB32
:101F940001344346F3E753464A462946304609F09E
:101FA400BAFF002811DB0444002F07DD2946202056
:101FB400B047002809DB0134013FF5E7DDF808905C
:101FC40044E5DDF8089041E5204611B0BDE8F08F06
:101FD4002DEF000038B504460D462022002109F0FB
:101FE40047F9EB68E361AB68A3612B6823626B6814
:101FF40063620022A2622A6922612BB1591E0B423C
:1020040002D142F00102226104F12C0001220021DC
:102014000CF020F800B938BD054C2F2322460549A1
:10202400054809F099FF2F21204609F08CFF00BFD5
:1020340030EF000058EF000084E800002DE9F04F75
:1020440089B09A46002307930593436A8B42C0F0F4
:10205400F380834689460023029301270393904625
:1020640062E0784D88232A467749784809F074FF5E
:102074002146774809F070FF8821284609F063FF5C
:10208400029958460AF09CF80023059361E0DBF8B6
:102094002030DBF8002003EB8201039113F82210B7
:1020A4006FF3000103F82210C9B26FF3410103F882
:1020B4002210DBF800304B44DBF8102012F0010F43
:1020C40005D1DBF824108B4205D35B1A03E0DBF85F
:1020D400241001390B40CBF80030DBF80C10994286
:1020E40001D0002709E042F00802CBF810200027B5
:1020F40003E0584609F09CFF2F46019D204608F056
:10210400D5FB002800F0878085F31188BFF36F8F1B
:10211400079931B1DBF818300BB1584698470023C2
:102124000793002F00F08A800BF11404EFF311865B
:10213400202383F31288BFF36F8F204608F0A6FB99
:1021440000288ED0204608F0CBFB0196059A002A81
:1021540096D106A9584609F00DFF0546069949454A
:1021640095D20028C5D15AEA08030CD1002FC4D057
:10217400DBF80030029305AB07AA0699584609F02C
:102184008AFF0746B9E70BF0C4FF0028EED1002E02
:10219400ECD1204608F08AFBE8B186F31188BFF33E
:1021A4006F8F0BF12C004246534606F05DFC074648
:1021B400EFF31185202383F31288BFF36F8F20463A
:1021C40008F064FBC0B1204608F08AFB0195B7FA19
:1021D40087F77F0991E71B4D40F231132A461D49C9
:1021E4001A4809F0B9FE21461B4809F0B5FE40F231
:1021F4003111284609F0A7FE124D88232A461249B8
:10220400124809F0A9FE2146114809F0A5FE8821CB
:10221400284609F098FE0B4D40F231132A460D4929
:102224000A4809F099FE21460B4809F095FE40F250
:102234003111284609F087FE00230393039809B05F
:10224400BDE8F08F64EF000094EF000084E8000024
:10225400ACEF0000C4EF0000DCEF00002DE9F0411A
:1022640004460D46C36908469847074604F1140618
:10227400EFF31188202383F31288BFF36F8F304666
:1022840008F004FB88B1304608F02AFB2B7843F0B1
:1022940001032B7063681F44236913F0010F13D1EA
:1022A400636A9F4213D3FF1A11E0184C8823224615
:1022B4001749184809F050FE3146174809F04CFEFA
:1022C4008821204609F03FFE636A013B1F40676096
:1022D400204609F087FE304608F0E8FA28B188F372
:1022E4001188BFF36F8FBDE8F081084C40F23113C1
:1022F40022460A49074809F02FFE3146084809F0EA
:102304002BFE40F23111204609F01DFE64EF00005F
:1023140094EF000084E80000ACEF0000C4EF00007C
:10232400DCEF00002DE9F04182B0044642E04A4C63
:102334008823224649494A4809F00EFE294649485D
:1023440009F00AFE8821204609F0FDFD53F8220019
:1023540080085DD153E0626A013A1340A3602046CD
:1023640009F053FE1BE013F8221041F0020103F8B8
:102374002210A668E369404698473044236913F065
:10238400010F04D1636A984204D3C01A02E0636A5D
:10239400013B1840A060002601E00026B046284614
:1023A40008F084FA002842D087F31188BFF36F8FB6
:1023B400002E4DD004F11405EFF31187202383F38D
:1023C4001288BFF36F8F284608F060FA064600288B
:1023D400ADD0284608F084FA01A9204609F0DEFDB4
:1023E400236AA26803EB820801990029D5D013F867
:1023F400221011F0030117D00229A7D0002013F8EE
:10240400221011F0010FAED110B9E369404698478C
:10241400A36801460344226912F0010F9BD1626A4A
:1024240093429BD39B1A99E70026B046B7E70A4C20
:1024340040F2311322460C49094809F08DFD294622
:102444000A4809F089FD40F23111204609F07BFD6C
:10245400404602B0BDE8F08164EF000094EF000054
:1024640084E80000ACEF0000C4EF0000DCEF0000E3
:102474002DE9F04104460D46C369084698470646CF
:1024840004F11407EFF31188202383F31288BFF3B8
:102494006F8F384608F0FAF9A8B1384608F020FAE8
:1024A4002B786FF300032B70236913F0020F19D0FC
:1024B400236AE26803EB8203AB4213D02B6866F312
:1024C4009F032B601AE0244C882322462349244886
:1024D40009F042FD3946234809F03EFD8821204693
:1024E40009F031FD2B786FF341032B70E268A36888
:1024F4009A4211D03146204609F087FD384608F04B
:10250400D5F9C0B188F31188BFF36F8F04F12C00A3
:1025140006F00EFABDE8F0813344226912F0010F8F
:1025240004D1626A934204D39B1A02E0626A013ABC
:102534001340A360DEE7084C40F2311322460A49F7
:10254400074809F009FD3946084809F005FD40F23D
:102554003111204609F0F7FC64EF000094EF00000D
:1025640084E80000ACEF0000C4EF0000DCEF0000E2
:1025740070B582B0044600F11405EFF311862023F0
:1025840083F31288BFF36F8F284608F07FF9A0B158
:10259400284608F0A5F901A9204609F0FFFC2846C1
:1025A40008F084F9C0B186F31188BFF36F8F0198E6
:1025B400003818BF012002B070BD104C8823224699
:1025C4000F49104809F0C8FC29460F4809F0C4FC1B
:1025D4008821204609F0B7FC084C40F2311322460A
:1025E4000A49084809F0B8FC2946094809F0B4FC2E
:1025F40040F23111204609F0A6FC00BF64EF000050
:1026040094EF000084E80000ACEF0000C4EF000089
:10261400DCEF000010B504468C46838B002A12DBE5
:1026240003F007035A1F012A19D9042B50D10021A2
:1026340009F0F7FD204609F01EFE78B1A38B43F0A4
:102644002003A3830AE0D0E900018CE803000023FF
:10265400236063600121204609F0E3FD10BDD0E949
:1026640000018CE80300002222606260062B0FD078
:10267400052B20D10021204609F0D3FD204609F086
:10268400FAFD0028EAD0A38B43F02003A383E5E7F7
:10269400DCF8003053B1E28B0132E2831A461B6846
:1026A400002BF7D0002AF5D11346F3E70221204688
:1026B40009F0B7FDE2E70D4C40F2091322460C493C
:1026C4000C4809F049FC40F20911204609F03BFC92
:1026D400064C40F21B1322460749064809F03CFC0D
:1026E40040F21B11204609F02EFC00BFF4EF00005D
:1026F4001CF0000084E80000C8EA00002DE9F0475F
:1027040082B0838BE1B10446154603F0070603F05B
:102714000802084692B301291FD0022921D143F0AF
:102724002003A3831434204608F0C0F8002800F0E6
:102734009D8185F31188BFF36F8F02B0BDE8F087E8
:10274400B94C40F233132246B849B94809F004FCA5
:1027540040F23311204609F0F6FB43F01003A38343
:10276400E0E7B14C4FF49E732246B249B04809F0F9
:10277400F3FB4FF49E71204609F0E5FB0023009320
:10278400019357E0204609F076FD55E0D4F81890FF
:102794004A4669462046FFF73DFF0027A38B03F016
:1027A4000708B04500F00781A268002A00F0038101
:1027B400012643F00803A38304F1140A504608F0E9
:1027C40075F8002800F0008185F31188BFF36F8F3E
:1027D400002E40F00A81009B2BB14B4642466946CD
:1027E400204609F089FD17B193492046B847EFF315
:1027F4001185202383F31288BFF36F8F504608F0AE
:1028040045F8002800F0F780504608F069F8A38BDB
:1028140023F00803A383A38B13F0100F00F0FA80B6
:1028240023F01003A3830120A68B06F007060028DB
:102834003FF478AF0228A5D000283FF473AF0138E5
:10284400042800F2AB8001A353F820F09127000084
:10285400A129000065280000CD28000037290000C8
:102864005EB92368B3B123691F6807B30621204604
:1028740009F0D7FC4FF0000990E76B4C4FF4AB73B1
:1028840022466E496A4809F067FB4FF4AB71204653
:1028940009F059FB644C40F25713224668496448D6
:1028A40009F05AFB40F25711204609F04CFB5E4CEC
:1028B4004FF4AD73224663495D4809F04DFB4FF474
:1028C400AD71204609F03FFB022E0BD1E38BB3B967
:1028D40023695F6807B30421204609F0A2FC4FF086
:1028E40000095BE7504C40F25D13224656495048BC
:1028F40009F032FB40F25D11204609F024FB4A4CFA
:102904004FF4AF7322465149494809F025FB4FF46F
:10291400AF71204609F017FB434C40F26113224685
:102924004849434809F018FB40F26111204609F078
:102934000AFB012E0BD12368B3B123699F6807B347
:102944000521204609F06DFC4FF0000926E7364CBE
:102954004FF4B27322463E49354809F0FDFA4FF46C
:10296400B271204609F0EFFA2F4C40F2651322466B
:1029740033492F4809F0F0FA40F26511204609F076
:10298400E2FA294C4FF4B47322462E49284809F040
:10299400E3FA4FF4B471204609F0D5FA224C40F220
:1029A4006B1322462B49224809F0D6FA40F26B11E8
:1029B400204609F0C8FA009A0AB10026F9E6002F69
:1029C4003FF429AF0026F4E6234C40F231132246AB
:1029D4002249174809F0C0FA5146214809F0BCFAC7
:1029E40040F23111204609F0AEFA4A4641462046EB
:1029F40009F01FFCEFE6184C8823224619490C48BD
:102A040009F0AAFA5146184809F0A6FA8821204686
:102A140009F099FA13F0200F04D023F02003A383C4
:102A2400022001E70020FFE6F4EF000044F000007C
:102A340084E8000054F00000A52A000068F00000BB
:102A440074F0000098F00000B0F00000C8F000003E
:102A5400D8F00000C8EA000064EF0000C4EF0000F2
:102A6400DCEF000094EF0000ACEF0000084D40F2F2
:102A740031132A460749084809F06EFA21460748E7
:102A840009F06AFA40F23111284609F05CFA00BFF5
:102A940064EF0000C4EF000084E80000DCEF0000F5
:102AA400F8B504460D4600F11406EFF31187202310
:102AB40083F31288BFF36F8F304607F0E7FE48B107
:102AC400304607F00DFFA5613A4601212046FFF785
:102AD40015FEF8BD074C882322460749074809F02C
:102AE4003BFA3146064809F037FA8821204609F0B6
:102AF4002AFA00BF64EF000094EF000084E80000AD
:102B0400ACEF00002DE9F0470446884609F0CCFB01
:102B1400061E46DB04F11407EFF3118A202383F326
:102B24001288BFF36F8F384607F0B0FE8146A8B114
:102B3400384607F0D5FEA58B05F00705E38B4FF665
:102B4400FF7293424BD02E46022D16D0062D39D853
:102B5400DFE805F0314C3838312A31003B4C88230A
:102B640022463B493B4809F0F7F939463A4809F00F
:102B7400F3F98821204609F0E6F90133E3830023C1
:102B84001A4642B10022C8F800206268AAB3C2F80B
:102B94000080C4F80480ABB3524602212046FFF7FC
:102BA400ADFD3046BDE8F0876FF085064FF00009B3
:102BB4004B464A46E5E7B5FA85F35B094A464FF0CA
:102BC4000009DEE7254C4FF4E473224624492148EA
:102BD40009F0C2F94FF4E471204609F0B4F96FF03A
:102BE4000A064FF000094B464A46CAE76FF004064E
:102BF4004FF000094B464A46C3E7C4F80480C4F8C2
:102C04000080C8E7384607F051FE68B18AF311889E
:102C1400BFF36F8FB9F1000FC3D000232A4641469A
:102C2400204609F056FBBCE7084C40F2311322461B
:102C34000C49084809F090F939460B4809F08CF919
:102C440040F23111204609F07EF900BF64EF000024
:102C540094EF000084E80000ACEF0000F4EF000003
:102C6400D8F00000C4EF0000DCEF00000346426827
:102C740002F003028160022A0CD87AB910B5094C1B
:102C8400452322460849094809F066F945212046AA
:102C940009F059F9032AF1D1006800E0002000226C
:102CA4005A607047F0F00000C8EA000084E80000B1
:102CB40010B143685879704710B5064C40F233138D
:102CC40022460549054809F047F940F233112046E8
:102CD40009F039F918F1000050F1000084E800000F
:102CE40010B520B10268D26802B1904710BD054CFE
:102CF4008B2322460449054809F02EF98B212046EE
:102D040009F021F918F1000050F1000084E80000F6
:102D140010B520B10268126962B1904710BD064C2B
:102D24009E2322460549064809F016F99E212046AD
:102D340009F009F90020F1E718F1000050F1000052
:102D440084E8000010B518B102689268904710BD7D
:102D5400054CD02322460549054809F0FDF8D02149
:102D6400204609F0F0F800BF18F1000050F100000F
:102D740084E8000010B520B10268526802B190479F
:102D840010BD054CC22322460449054809F0E4F865
:102D9400C221204609F0D7F818F1000050F10000D4
:102DA40084E8000010B520B171B102681268904740
:102DB40010BD0B4CB22322460A490B4809F0CCF84B
:102DC400B221204609F0BFF8054CB3232246074937
:102DD400054809F0C1F8B321204609F0B4F800BF52
:102DE40018F1000050F1000084E8000068F10000D0
:102DF40038B50546144C00E01034144B9C4212D8EC
:102E0400124B9C421FD22046FFF752FF0028F3D0FA
:102E14002946204609F0CDFA0028EDD0294620465F
:102E2400FFF7C0FFE8E70A4C40F2F51322460949D0
:102E3400094809F091F8094809F08EF840F2F511B3
:102E4400204609F080F838BD68E7000078E7000004
:102E54007CF10000ACF1000084E80000D0F1000037
:102E640010B530B10346006884690CB11846A04718
:102E740010BD064C4FF4B17322460549054809F0CC
:102E84006BF84FF4B171204609F05DF818F10000B9
:102E940050F1000084E8000070B506460D460F4C62
:102EA40005E02A4631462046FFF7DAFF10340C4B82
:102EB4009C4203D80A4B9C42F3D370BD094C40F2A8
:102EC400923322460849094809F046F8084809F0AF
:102ED40043F840F29231204609F035F868E70000E3
:102EE40078E700007CF10000ACF1000084E8000009
:102EF400D0F100002DE9F04107460546EDB195FA01
:102F0400A5F6B6FA86F60E4C04EB06140123B3407C
:102F14006FEA030825EA0305237B002BEED0204645
:102F2400FFF7F6FE0028E9D107EA080763680422E0
:102F34001968204600F064FBE0E73846BDE8F081FC
:102F440068E700002DE9F0412F4B304A9B1A8F2B84
:102F54000ED880460F462E4BD3E8EF6F721CC3E8A1
:102F6400E12F0029F8D1002E4AD1284C002514E085
:102F7400284C40F2411322462749284808F0ECFF28
:102F840040F24111204608F0DEFF6368042219680C
:102F9400204600F035FB013510341B4B9C4211D800
:102FA400194B9C421ED2237B002BF4D02046FFF702
:102FB40097FE2046FFF7ACFE0028E6D00123AB4085
:102FC4001E43E8E7134C4FF4A773224614491348F1
:102FD40008F0C2FF134808F0BFFF4FF4A771204662
:102FE40008F0B1FFB8F1000F0BD056B13046FFF72F
:102FF40081FF0646002FF8D00A2009F0E0F9F4E733
:1030040000263046BDE8F08178E7000068E700005C
:10301400800C00207CF10000F0F1000084E8000046
:10302400ACF10000D0F1000008B5064B186018B1EF
:10303400054B1B68092B00DC08BD044805F078FC2F
:10304400FAE700BF740C00207C0C0020E803002089
:1030540008B5024805F06CFC08BD00BFE803002079
:1030640030B589B000220F490F480BF028F90F4DF5
:1030740000220023CDE90623002404940E230393A5
:103084000294019400940A4B4FF4006209492846C3
:1030940006F0CEF8084928460BF041F8204609B05E
:1030A40030BD00BF5530000090080020F803002018
:1030B400C9340000600E002020F20000014B53F8D8
:1030C4002000704758F2000048B108B5054A106066
:1030D400054B1960084600F045FE002008BD6FF05E
:1030E40015007047A4020020700C002008B5054BA1
:1030F4001B781BB1034B01221A7008BD024805F06E
:1031040017FCF7E7570E0020E803002008B50C4B26
:10311400D3E8EF1F0131C3E8E21F002AF8D130B928
:1031240008480BF0D8F8084805F002FC08BD074B26
:10313400D3E8EF1F0139C3E8E21F002AF0D0F7E714
:10314400780C002090080020E80300207C0C00206C
:10315400044B00200146D3E8EF0FC3E8E21F002A26
:10316400F9D17047780C002038B5FFF7F1FF054618
:10317400114C00E01034114B9C420CD80F4B9C4274
:1031840019D22046FFF794FD0028F3D029462046A3
:10319400FFF7F0FDEEE70A4C40F20123224609490D
:1031A400094808F0D9FE094808F0D6FE40F201218A
:1031B400204608F0C8FE38BD68E7000078E7000044
:1031C4007CF10000ACF1000084E80000D0F10000C4
:1031D400034B18680028D4BF00200120704700BFAB
:1031E400780C002010B5044C04492046FEF7F2FE8A
:1031F400034B1C6010BD00BF6C03002044F20000B0
:10320400680C002008B50023064A1370064A1360B0
:10321400064A13604FF400410548FFF755FFFFF7D6
:10322400E1FF08BD580E0020780C00207C0C002023
:10323400BBC3000008B50146014809F0D6F808BD33
:103244006C03002008B50248FFF76CF808BD00BF06
:103254006C03002008B50146024B186809F0CBF84E
:1032640008BD00BF680C002008B5024809F0C7F883
:1032740008BD00BF6C03002010B582B000220023FB
:10328400CDE90023264B187808B902B010BD684672
:1032940009F0CDF8044668B1224BD3E8EF1F013999
:1032A400C3E8E21F002AF8D12046FFF7A1FD20461B
:1032B400FFF7D0FFFFF78CFF58B91B4A136851681A
:1032C40013F57A7341F1000113605160FFF7CCFFED
:1032D400DBE70AF0E5FF4A0142EAD06243011B1A28
:1032E40062EB0102920042EA93729B001B1842EBCC
:1032F4000102D20042EA5372C3F3103343EA424359
:10330400D20B0948016840685B1A62EB000240F284
:10331400E9318B4272F10002CFD3FFF725FFCCE7EE
:10332400570E00207C0C002088080020194B1B78C5
:1033340003B1704710B500210120FFF703FE164CBE
:1033440000E01034154B9C420BD8144B9C4218D20D
:103354002046FFF7ADFC0028F3D02046FFF7F2FC2F
:10336400EFE70F4C4FF4DD7322460E490E4808F088
:10337400F3FD0E4808F0F0FD4FF4DD71204608F02F
:10338400E2FDFFF779FF0028FBD1024B01221A70FE
:1033940010BD00BF580E002068E7000078E7000069
:1033A4007CF10000ACF1000084E80000D0F10000E2
:1033B40030B583B02F4BD3E8EF2F511CC3E8E01F87
:1033C4000028F8D12C4B1B786BB92C4B1B681BB312
:1033D400002A43D0092A1FD129480AF07CFF294832
:1033E40005F0A6FA18E0EFF31184202383F3128882
:1033F400BFF36F8F244807F049FA78B1224D28466D
:1034040007F06EFAFFF738FF284607F04FFAA0B12D
:1034140084F31188BFF36F8F03B030BD1B4C882336
:1034240022461B491B4808F097FD17491A4808F023
:1034340093FD8821204608F086FD144C40F2311398
:1034440022461649134808F087FD2946144808F017
:1034540083FD40F23111204608F075FD002200235F
:10346400CDE900234FF400420023054807F0E4FDB2
:10347400D2E700BF7C0C0020580E0020740C002002
:1034840090080020E80300206C0C002064EF00008A
:1034940094EF000084E80000ACEF0000C4EF0000EB
:1034A400DCEF000010B50446044B1B689847A0608D
:1034B4002146034808F0BFFF10BD00BFA40200204E
:1034C4006C0300202DE9F041224B234A9B1A1B096F
:1034D4000ED000210846FFF735FD8046A8B140F222
:1034E4006766002706F0E4FEFFF79EFD002525E051
:1034F4001A4C40F29E33224619491A4808F02CFD12
:1035040040F29E31204608F01EFD4FF0FF364FF08A
:10351400FF37E7E74046FFF7EDFC804688B94FF0F8
:10352400FF364FF0FF370CE000210846FFF7B4FCEC
:1035340032463B460C4805F097FA2546B8F1000F91
:10354400E8D1FFF799FE04460028F6D1002DEBD10F
:103554002C46EDE778E7000068E700007CF1000006
:1035640028F2000084E80000E803002010B143685A
:103574001971704710B5054CDF23224604490548EC
:1035840008F0EAFCDF21204608F0DDFC18F1000019
:1035940050F1000084E8000028B1426811604368DB
:1035A40001225A71704710B5064C4FF48C732246B1
:1035B4000549064808F0D0FC4FF48C71204608F009
:1035C400C2FC00BF18F1000050F1000084E80000C4
:1035D4000248034BC01AC008704700BF68E70000E8
:1035E400F8E6000010B50C46FFF7F2FFA04203D93D
:1035F400024B53F8340010BD0020FCE7F8E600004D
:1036040070B504460D461646074BC31A1B11013309
:10361400D9B2FFF7ABFF63689E7129462046FFF7D6
:10362400BBFFFFF763FD70BD68E7000000B589B01C
:10363400059206930023079362B1074A0C9B0293F9
:103644000B9B01930A9B009305ABFDF747FE09B062
:103654005DF804FB0022F1E74BC400002DE9F04FB4
:103664008BB004AF05461E468846C1F34A24002C9D
:1036740000F0978091460022FA603A617A6104234F
:103684000293FB1801930A23009307F10C032146CC
:103694004846FDF723FEB0F5006F58D3D9F804105F
:1036A4006D4600233B7302237B738AB004AC14F190
:1036B400100217D012201AB1042801DD424B6361B5
:1036C40000233B7002237B70CAB10346082800DD47
:1036D400A1610C2B02DD40F2FF73E36104F12003CE
:1036E40000210AE06FF00040E5E701F118063E44CE
:1036F40016F8186C03F8016B01310129F5D911286A
:1037040022DD122342B10421397300217973B97384
:103714000121F973F868206100216FF300016FF350
:1037240041016FF382016FF3C501022060F3881138
:10373400C3F30A0363F353210023C1F313012348A2
:1037440008F001FFAD463BE06FF01B03DAE760F3DE
:103754005328C0F30A0A0AEB1850173020F0070068
:103764008008FFF767FD834620B304230293FB1808
:1037740001930A230093534600F110022146484660
:10378400FFF754FF002815DA114C4FF4A3732246B7
:103794001049114808F0E0FB4FF4A371204608F0EB
:1037A400D2FB04EB1154173424F00704A008FFF7EC
:1037B40041FD8346334642462946584608F059FEA1
:1037C4001C37BD46BDE8F08FC4F2000018E70000C6
:1037D40004F3000030F3000084E800002DE9F04F0A
:1037E40085B006460F4615469846DDF838B0DDF834
:1037F4004090B9F1000F52D0119B039300934B46B4
:103804000F9A10210020FDF7C9FA031E32DBB3F52D
:10381400006F3CD29A460BEB0300173020F00700F0
:1038240000246FF300046FF341046FF3820466F322
:10383400C50465F3881463F353246BF31F548008A1
:10384400FFF7F8FC054660B11030B9F1000F08D05D
:10385400119B00934B460F9A5146FDF79FFA00289F
:103864001FDB434622463946284608F002FE05B0CF
:10387400BDE8F08F114C40F26513224610491148FF
:1038840008F06AFB40F26511204608F05CFB40F248
:10389400FF730D4A02210D4808F03DFEE7E70023BF
:1038A400B8E7064C40F2851322460549054808F05E
:1038B40053FB40F28511204608F045FB04F3000059
:1038C4003CF3000084E8000048F3000018E700001F
:1038D400406820B1034BC01A40F3CF0070474FF04B
:1038E400FF307047F8E6000038B505460C464B68D3
:1038F4001A68CB689A4210D06368D3E8EF2F511C42
:10390400C3E8E01F0028F8D1A3689D5463681A68CF
:10391400E3689A4205D8002038BD084608F017FE2F
:10392400EAE7054C722322460449054808F014FBD3
:103934007221204608F007FB80F30000B0F300007A
:1039440084E800000EB400B584B0014605AB53F81A
:10395400042B0393002000900348FEF76FF804B093
:103964005DF804EB03B07047ED38000010B584B087
:1039740011F0440F05D01A4B1B6833B9002004B072
:1039840010BD1849FFF7DEFFF9E717490968B2FBD4
:10399400F1F2B2FBF3FC03FB1C224FF47A7E0EFB24
:1039A40002F2B2FBF3F403FB14210EFB01F1B1FBB1
:1039B400F3F10E4AA2FB0C32D20A4FF4616303FB0B
:1039C40012CC0B4BA3FB0CE35B0902910194C3EBF8
:1039D4000311ACEB810100910649FFF7B3FFCEE779
:1039E400880C0020E0F30000840C0020C5B3A291F1
:1039F40089888888ECF3000061B108B52AB1064AC9
:103A040052F8232012B9054A00E0044A0449FFF79A
:103A140099FF08BD704700BFA4F4000008F400003B
:103A2400BCE700002DE9F04105461746069EDDF887
:103A34001C8081B900242EB1324611492846FFF773
:103A440081FF0444B8F1000F14D06FB1099B042B1B
:103A540013D00C4909E00C4B099A53F822200B4966
:103A6400FFF770FF0446E6E7064942462846FFF79B
:103A740069FF04442046BDE8F0810549F5E700BF2D
:103A840024F4000014F40000B8F400001CF4000056
:103A940010F400002DE9F04F87B0049205939DF8CF
:103AA4004C60042E30D805460C4601F0020B01F0A0
:103AB400010AC1F3C00801F4807908F0C2FC02468F
:103AC40078B31C492846FFF73DFF0746BBF1000FBA
:103AD40029D132465146284608F067FDB9F1000F56
:103AE40001D0002311930396129B0293119B01931F
:103AF400109B00930023049A41462846FFF792FF47
:103B0400384407B0BDE8F08F0B4C40F24623224600
:103B14000A490B4808F020FA40F24621204608F0F2
:103B240012FA0027D2E7059A21462846FFF71EFF1E
:103B34000744CEE734F4000080F3000028F40000CA
:103B440084E8000011F0100F0BD108B511F0200F1C
:103B540003D00449FFF7F6FE08BD0349FFF7F2FE60
:103B6400FAE77047A8FD000038F400002DE9F041A1
:103B740005460F46164698460699FFF7E3FF0024CC
:103B8400444505DA24492846FFF7DCFE0134F7E70B
:103B9400002409E020492846FFF7D4FE0BE01F4922
:103BA4002846FFF7CFFE01340F2C0CDC002C02DD7D
:103BB40014F0070FEED0B442F1D23A5D184928460A
:103BC400FFF7C0FEEFE717492846FFF7BBFE0024C6
:103BD40009E011492846FFF7B5FE0BE012492846D3
:103BE400FFF7B0FE01340F2C13DC002C02DD14F0BF
:103BF400070FEED0B44207D23A5D0C4B9B5C13F036
:103C0400970FEBD12E22E9E703492846FFF79AFEE6
:103C1400E8E7BDE8F08100BF20F4000044F40000B0
:103C24003CF4000048F400004CF4000005120100CC
:103C34002DE9F04184B004469DF82C500C9F0E9E53
:103C4400A5B9012B20D020484FF0000837B13B46DE
:103C540022461E4907F016FF002819DB2EBB6DBB58
:103C6400204608F074FC04B0BDE8F08103950A987E
:103C74000290019300920B4600220F992046FFF711
:103C840009FF80461248E1E711484FF00008DDE7DC
:103C9400104C4FF4287322460F49104808F05CF981
:103CA4004FF42871204608F04EF90F9B00934346C9
:103CB40032460D99204608F090FCD0E72A460F9929
:103CC400204608F07EFCCBE781C500009FC50000BC
:103CD400ED38000080F3000050F4000084E8000098
:103CE4002DE9F04383B00646056842F20F738B4218
:103CF40028BF0B46184A0521684607F045FF0446CD
:103D04007368D3F804900B27DFF8508005E04A4627
:103D140039464046A8473F1A8044002FF7D17368BC
:103D2400D3F804806F4605E0424621463846A8474A
:103D3400241A0744002CF7D173685F681B24084ECB
:103D440005E03A4621463046A847241A0644002C8A
:103D5400F7D103B0BDE8F0832CF6000078F400003E
:103D64005CF40000074B01221A6004E04008054A95
:103D740013685B001360044B9842F7D8034B186038
:103D8400704700BF840C002040420F00880C0020C4
:103D940070B506460D46002405E0315D044883688D
:103DA4005B6898470134AC42F7D3284670BD00BF26
:103DB40004E4000010B543681C6809480AF011F9CE
:103DC40018B123685B685C6010BD064C99232246D9
:103DD4000549064808F0C0F89921204608F0B3F8D0
:103DE40004E40000CCF400000CF5000084E80000BA
:103DF400014B0360002070477CF500002DE9F04181
:103E040082B000AF0446D0F800E0D0F804C0856862
:103E14006E468AB06B4613F1100200F088801421BC
:103E24008AB10846042903DDDFF81C81C3F8148035
:103E3400082801DDC3F818E00C2801DDC3F81CC014
:103E4400102800DD1D62132974DD14253AB1052103
:103E5400397100217971B971F9717868186100219B
:103E64006FF300016FF341016FF382016FF3C5013A
:103E7400012363F38811C5F30A0565F353216FF336
:103E84001F5100233148FFF7E9FBB546D4F80CC0B5
:103E940026696569E8468AB06B4613F110024CD076
:103EA400142182B10846042903DDDFF8A4E0C3F835
:103EB40014E0082801DDC3F818C00C2800DDDE6119
:103EC400102800DD1D6213293ADD14253AB10521BD
:103ED400397100217971B971F9717868186100211B
:103EE4006FF300016FF341016FF382016FF3C501BA
:103EF400012666F38811C5F30A0565F353216FF3B0
:103F04001F51124D00232846FFF7A8FBC546E3695D
:103F1400104A3146284608F0FEFAA3690E4A314693
:103F2400284608F0F8FA0837BD46BDE8F0816FF07E
:103F3400004175E76FF01B0588E76FF00041B0E7BB
:103F44006FF01B05C2E700BF7CF5000048E70000E6
:103F5400ACF50000DCF50000ECF5000038B50446D3
:103F64000D4611B10846FFF749FF012C04D029463C
:103F7400204604F0BDF938BDEFF30583103B034A36
:103F84000121034808F0C7FAF1E700BF1CF600005E
:103F940048E7000030BFFFF7FDBF00BF08B5094B7D
:103FA4009B6893F90E20002A08DB064AD2699342E3
:103FB40004D0054A536843F08053536005F0B8F8C1
:103FC40008BD00BF080A002000ED00E081690D4B28
:103FD4005A6942F480725A61BFF34F8FBFF36F8FF7
:103FE40031F8021C5A6922F480725A61BFF34F8F70
:103FF400BFF36F8F4DF60273994201D000207047D2
:104004000120704700ED00E04FF0000C83F800C081
:1040140002F07F4CBCF17F4F14D102F00C0CBCF1C8
:10402400080F04D012F0080F09D00846704708B5ED
:10403400054A0121054808F064FA002008BD012260
:104044001A7070470020704730F6000048E70000FF
:1040540008B5314A0121314808F053FA304B9B6AC4
:1040640013F0007F26D11D202D4B9B6A13F0807F17
:1040740027D12B4B9B6A13F4801F29D1284B9B6AB1
:1040840013F4002F2BD1264B9B6A13F4802F2DD1D0
:10409400234B9B6A13F4003F2FD1214B9B6A13F4EB
:1040A400803F31D11E4A936A6FEA03436FEA134398
:1040B400936208BD1B4A0121184808F022FA1E2009
:1040C400D2E7194A0121154808F01BFA1F20D0E74E
:1040D400164A0121114808F014FA0220CEE7144AC6
:1040E40001210E4808F00DFA2120CCE7114A0121E4
:1040F4000A4808F006FA2220CAE70F4A01210748B5
:1041040008F0FFF92320C8E70C4A0121034808F00E
:10411400F8F92420C6E700BF5CF6000048E7000079
:1041240000ED00E074F6000088F60000A4F600003C
:10413400D0F60000F0F6000018F7000034F7000095
:1041440008B500230B70034A0121034808F0D9F98C
:1041540008BD00BF60F7000048E7000090B583B0D9
:1041640000AF0F2923DC2F4C103900233B710223AD
:104174007B718AB0EC461CF110021AD0122022B1D5
:10418400042802DD284BCCF8143000233B700223B2
:104194007B70E2B10346082801DDCCF818400C2BF3
:1041A40001DDCCF81C100CF1200300210DE01F4CA4
:1041B400DAE76FF00040E2E701F1080404EB070ED0
:1041C4001EF808EC03F801EB01310129F4D9112898
:1041D40024DD12234AB10421397100217971B971A6
:1041E4000121F9717868CCF8100000216FF3000107
:1041F4006FF341016FF382016FF3C501012060F396
:104204008811C3F30A0363F353216FF31F5100238F
:104214000748FFF723FA0C37BD4690BD6FF01B0328
:10422400D8E700BF84F70000B8F700009CF700004F
:1042340048E70000F8B505460F461446454A0121F3
:10424400454808F05EF9454B9B6A13F0100F39D1CD
:104254001026424B9B6A13F0080F3AD13F4B9B6ADE
:1042640013F0020F3CD13D4B9B6A13F0010F53D165
:104274003A4B9B6A13F0200F55D1384B9B6A13F0CD
:10428400100F04D1354B9B6A13F0020F04D0334B4B
:104294009B6A13F0100F4DD1304B9B6A13F0200F23
:1042A40004D02E4A536A23F4005353622B4A936A70
:1042B40043F0FF0393620121284608F024FA20709A
:1042C4003046F8BD264A0121234808F01AF9112680
:1042D400BFE7244A0121204808F013F91226BDE75C
:1042E400214A01211C4808F00CF91C4A536B926ABC
:1042F40012F0800F01D11326B5E71C4A012116489C
:1043040008F009F937B1154A936A23F080039362E0
:104314001326A8E71326A6E7154A01210E4808F03C
:10432400F0F81426A4E7134A01210B4808F0E9F831
:104334001526A2E7104C40F2331322460F491048C9
:1043440007F00AFE0F4807F007FE40F2331120463B
:1043540007F0F9FDCCF7000048E7000000ED00E0AD
:10436400E4F7000018F800002CF8000044F80000FE
:104374005CF800007CF80000ACF80000E0F80000F5
:1043840084E800002CF90000F8B505460F461446F1
:10439400374A0121374808F0B4F8374B9B6A13F4C5
:1043A400805F25D11626344B9B6A13F4006F26D107
:1043B400314B9B6A13F4007F28D12F4B9B6A13F473
:1043C400806F3FD12C4B9B6A13F4807F41D12A4BE1
:1043D4009B6A13F4005F43D1274A936A43F47F43F3
:1043E40093620121284608F08EF920703046F8BD0A
:1043F400224A01211F4808F084F81726D3E7204AEF
:1044040001211C4808F07DF81826D1E71D4A012136
:10441400184808F076F8184A936B926A12F4004F21
:1044240001D11926C9E7184A0121124808F073F886
:1044340037B1114A936A23F4004393621926BCE707
:104444001926BAE7114A01210A4808F05AF81A262F
:10445400B8E70F4A0121074808F053F81B26BBE7C9
:104464000C4A0121034808F04CF81C26B4E700BFAD
:1044740090F9000048E7000000ED00E0A8F9000012
:1044840018F80000BCF90000D8F90000F0F90000A9
:104494000CFA00007CF8000070B506460D463B4A55
:1044A40001213B4808F02DF800232B70394BDC6ABE
:1044B40014F0020425D1374BDB6A002B29DB354B82
:1044C400DB6A13F0804F50D0334A0121304808F0A2
:1044D40018F83046FFF77AFD08BB2E4B9B6A13F0A1
:1044E400FF0F24D12B4B9B6A13F47F4F26D1294B0A
:1044F4009B6AB3F5803F28D33046FFF7A9FD0446F5
:1045040005E0264A0121224807F0FBFF002420464B
:1045140070BD234A01211E4807F0F3FFF7E7336813
:10452400204A01211A4807F0F6FF3468EFE72A46CB
:1045340001213046FFF77EFE0446E8E72A460121C2
:104544003046FFF721FF0446E1E7174C40F2FA2317
:1045540022461649164807F0FFFC164807F0FCFCF3
:1045640040F2FA21204607F0EEFC0F4C40F2FE2305
:1045740022460E490E4807F0EFFC0F4807F0ECFC0A
:1045840040F2FE21204607F0DEFC00BF24FA0000C2
:1045940048E7000000ED00E070FA00003CFA00007B
:1045A40060FA000090FA0000ACF80000C8EA0000CD
:1045B40084E80000ACFA0000D0FA000030B58BB0FB
:1045C400274B5D68C5F30805002383F31188BFF307
:1045D4006F8F0DF12603FFF717FD58B104460DF157
:1045E4002702294608F091F805469DF827308BB13B
:1045F4000BB030BD1B4C4FF4856322461A491B484F
:1046040007F0AAFC1A4807F0A7FC4FF4856120467E
:1046140007F099FC0DF1040C20686168A268E36856
:10462400ACE80F0020696169A269E369ACE80F0096
:104634009DF826304BB1089BC3F308025AB96FEAC0
:1046440053236FEA4323089305E0089B23F4FF7385
:1046540023F00103089301A92846FFF77FFCC7E76D
:1046640000ED00E0ACF8000000FB000084E800006E
:1046740014FB0000064B5A6942F010025A615A6951
:1046840042F480625A615A6922F008025A61704702
:1046940000ED00E0EFF30880EFF3098101B5724605
:1046A400FFF78CFF01BD00BF0F4880F3088802F0BC
:1046B400D3FB202080F311880C484FF0AA014FF45B
:1046C400006209F0BEFC09484FF40061401880F311
:1046D4000988EFF314800221084380F31488BFF3A0
:1046E4006F8F00F0BDF80000A023002060160020AA
:1046F40008B50A4B9B68834202D005F0DFFD08BD74
:10470400EFF30583002BF8D0054B5A6842F0805232
:104714005A605A6A22F400425A62EEE7080A0020FC
:1047240000ED00E001B509F00AFDBDE801401749BC
:104734008A684FF040001044EFF3098C80E8F01FC2
:10474400202080F31288BFF36F8F114F4FF0006663
:10475400CA698A603E60D2F884000023C2F88430BB
:1047640080F3118802F1400090E8F01F8CF309886F
:1047740002F1000004B507F0F8FFBDE8044001B5FC
:1047840004F094FDBDE8014070470000080A0020D1
:1047940004ED00E01EF0040F0CBFEFF30880EFF30C
:1047A4000980816911F8021C0229FFD001B5724603
:1047B40007F09DFF01BD00BF002807DB00F01F02CA
:1047C400400901239340024A42F82030704700BF59
:1047D40000E100E0002808DB4901C9B200F16040B3
:1047E40000F5614080F80013704700F00F004901A4
:1047F400C9B2014B1954704714ED00E04209054B4E
:1048040053F8222000F01F00012303FA00F01040A7
:10481400704700BF00E100E070B505460C46013169
:10482400072903D840B2FFF7D5FF70BD084E5823BF
:1048340032460849084807F08FFB07232A462146D9
:10484400064807F089FB5821304607F07CFB00BF7F
:1048540054FB00008CFB000084E80000A8FB00006F
:1048640008B50F4B0F4A22F07F029A60BFF34F8FB7
:10487400BFF36F8FD3F8882022F47002C3F8882026
:10488400EFF3148323F0040383F31488BFF36F8FCF
:1048940003F03AFF06F02CF800F04CF803F098FF10
:1048A40000ED00E00000000010B4A2F120040E4965
:1048B40042F8081C21F0010142F8081C42F8203C8F
:1048C400019B42F81C3C029B42F8183C039B42F8B3
:1048D400143C4FF0807342F8043C04660023C0F893
:1048E400843010BC704700BFA9BB000008B5044663
:1048F4000E461546094B986004F0D8FC636F83F3A9
:104904000B882C4686F309880020054B98472046DF
:10491400002100220023034C204700BF080A002086
:1049240077C70000A9BB0000014B10221A61704731
:1049340000ED00E0002207E003F1604303F561436A
:10494400202183F800130132442A09DC53B2002BDE
:10495400F2DA03F00F030349194420230B76F2E73C
:10496400704700BFFCEC00E008B5EFF30583103B93
:10497400044A02EBC301496852F833008847FFF741
:104984000DFB08BD40E4000010B584B00A4C23467A
:104994000A4A01210A4800F01FFA002301930293F6
:1049A4000393084B0193E41A0294012101A800F037
:1049B40035FA04B010BD00BF00000720000000203D
:1049C400E8FB0000F8030020024B034AC3F8C020B0
:1049D400704700BF00ED00E0AAFF4400034BC3F89A
:1049E4009800C3F89C10C3F8A020704700ED00E0C5
:1049F4000E4BC3F89800C3F89800D3F89C000A7AC9
:104A040060F304020A72D3F8A020C2F34202087AC7
:104A140062F347100872D3F89C2022F01F020A6048
:104A2400D3F8A03023F01F03CB60704700ED00E003
:104A340070B505460E46002400E00134A6421EDD92
:104A440004EB44039A0005EB830359680029F4D06E
:104A5400A85807F0FAFE04EB84030B4A42F823003B
:104A640010F1160F0CD0094B1B78984209DA04EBAD
:104A7400840302EB83010431FFF7BAFFDDE7002072
:104A840070BD6FF01500FBE7B40C0020590E002038
:104A940010B504460A4BD3F89030C3F30723013B07
:104AA400984203D807F0ABFE204610BD0346054AE2
:104AB4000121054807F02FFD6FF01500F5E700BF51
:104AC40000ED00E0F8FB000038E700002DE9F04FAE
:104AD40087B08146009101931446002648E033468E
:104AE400614A0121614807F016FD6FF0150407E0E3
:104AF4003B465F4A01215D4807F00DFD6FF0150448
:104B0400204607B0BDE8F08FD84564D12946C0B22D
:104B140007F0ACFE2BE0574AC2F89870D2F89C30EC
:104B240003F01F0321F01F010B43C2F89C302946F8
:104B3400E0B207F09BFE044610F1160FE0D00134FA
:104B440015E0013B4B49C1F89870D1F8A02002F060
:104B54001F0223F01F031343C1F8A0302946E0B21B
:104B640007F084FE044610F1160FC9D00134013653
:104B7400009B9E42C4DA06EB46054FEA850A09EB20
:104B840085056F68002FF2D0019B23B1284607F0FA
:104B94004AFE0028A3D0394659F80A0007F055FE0A
:104BA400074610F1160FA3D08442A1DD314BC3F8A0
:104BB4009800D3F89C2022F01F02C3F89800D3F881
:104BC400A03043F01F0859F80A306968194401F10C
:104BD400FF3B934298D093429DD0D845B1D0013B3E
:104BE4002449C1F89870D1F8A02002F01F0223F0E4
:104BF4001F031343C1F8A0302946E0B207F036FE84
:104C0400044610F1160F3FF47BAF0130194BC3F883
:104C14009870D3F89C109DF8102061F304028DF86D
:104C24001020D3F8A030C3F34203D2B263F3471287
:104C34008DF8102059F80A306A681344029323F05F
:104C44001F03A8EB0B084344013B23F01F03059308
:104C540002A9C0B2FFF71CFF044610F1160F3FF47F
:104C64004FAF013483E700BF20FC000038E70000A9
:104C740044FC000000ED00E010B5034C0123227851
:104C8400FFF724FF207010BD590E0020F0B587B047
:104C9400054605A8FFF7ACF8064600244CE0576823
:104CA400095827F01F0390680344013B23F01F03B6
:104CB400019702919DF80C10012060F304018DF816
:104CC4000C10C9B2022060F347118DF80C10049344
:104CD400D36813F0010F25D0304C74232246304999
:104CE400304807F039F9304807F036F97421204686
:104CF40007F029F95768095827F01F0392681344ED
:104D0400013B23F01F03019702919DF80C2006211B
:104D140061F304028DF80C20D2B26FF347128DF8C0
:104D24000C20049301A92878FFF7B2FE00282EDB9B
:104D34002B7801332B700134B4422BD22001059916
:104D440001EB0412D3681B0D1B05B3F5001FA6D09D
:104D5400B3F5800FCED0B3F5801FECD15768095856
:104D640027F01F0392681344013B23F01F030197AC
:104D740002919DF80C20012161F304028DF80C20AE
:104D8400D2B261F347128DF80C200493CAE76FF096
:104D9400150000E0002007B0F0BD00BF68FC000073
:104DA40098FC000084E80000C0FC0000044B0522CD
:104DB400C3F89420BFF34F8FBFF36F8F704700BFCA
:104DC40000ED00E0BFF35F8F024B0022C3F8942094
:104DD400704700BF00ED00E038B50C46FFF74CFF0C
:104DE40010F1160F00D038BD084D40F26F132A465B
:104DF4000749084807F0B0F82146074807F0ACF81F
:104E040040F26F11284607F09EF800BF68FC0000CE
:104E1400C8EA000084E80000F0FC000038B50C4645
:104E2400FFF706FE10F1160F00D038BD084D40F212
:104E34007F132A460749084807F08EF82146074899
:104E440007F08AF840F27F11284607F07CF800BF8B
:104E540068FC0000C8EA000084E800001CFD0000B3
:104E640038B52D4B1D682D4BD3F89030C3F3072371
:104E74009D4205D8FFF7A6FFFFF7A6FD00241DE01D
:104E8400274C4FF4D37322462649274807F064F889
:104E9400224BD3F89020C2F307222946234807F077
:104EA4005BF84FF4D371204607F04DF81A4B59685C
:104EB40001EB0411204607F0A2FC0134A542F5D809
:104EC4001B480570FFF7E2FE10F1160F02D0184BD5
:104ED4001A7816E0124C4FF4E8732246114912482E
:104EE40007F03AF8134807F037F84FF4E871204612
:104EF40007F029F8094BC3F898200021C3F8A01043
:104F04000132064BD3F89030C3F307239A42F1DB06
:104F1400FFF74CFF002038BDACFD000000ED00E0C1
:104F240068FC0000C8EA000084E800004CFD0000B2
:104F3400590E002080FD00000C4BC3F1005303F513
:104F4400E023B3F5005F01D30020704710B5084C8F
:104F54008B2322460749084806F0FEFF074806F05F
:104F6400FBFF8B21204606F0EEFF00BFA0270020A8
:104F7400E4FD000014FE000084E8000060FE000070
:104F8400014B1860704700BFB002002068B108B53B
:104F9400064A074B1B680749A1FB03139B0C00FB44
:104FA40003F042F00103984708BD704790E7000002
:104FB400B402002083DE1B4338B51A4B1B7801333F
:104FC400194AA2FB031202F4FE7101EB92029C1A2D
:104FD400E5B208F039FA154B1B782BB1144A52F894
:104FE4002530C01A07281AD94FF05023D3F81431AA
:104FF40063B14FF050230022C3F81421D3F81431C5
:10500400084B1D7015B9094B01221A70054B1C7809
:1050140008F01AFA064B43F82400012038BD00209A
:10502400FCE700BF5B0E0020CDCCCCCC5A0E002098
:10503400C80C002038B505460468204607F038FC43
:1050440040B104F01F032B6064091DD0012C0ED164
:105054000E4838BD0E4C4FF46C7322460D490E4871
:1050640006F07AFF4FF46C71204606F06CFF084C92
:1050740040F2B93322460949074806F06DFF40F271
:10508400B931204606F05FFF0548E2E70028845066
:10509400E8FE00001CFF000084E80000C8EA0000ED
:1050A4000025845038B50124104BC3F80045104D39
:1050B4000223C5F8D0360321002007F00BFC03219E
:1050C400204607F007FCC5F80447C5F80449C5F8AD
:1050D400004B002405E00121064B185D07F0FAFBA4
:1050E4000134032CF7D9002038BD00BF0010005054
:1050F4000040005040FF000000B583B00DF10700F0
:1051040002F012F8114B98421CD1114B4FF48062FB
:10511400C3F8B8254FF40062C3F83C250D499DF847
:10512400070001F0E9FF0C499DF8070001F0CCFFEE
:105134009DF807300120984001F0C0FF002003B023
:105144005DF804FB6FF00B00F9E700BF0000AD0B46
:1051540000A002502CA0025028A1025008B5024918
:10516400024807F0E0F808BD48FF0000DC0C00200E
:10517400054BD3F8043513F0010F03D0024B002282
:10518400C3F804250020704700D000500048704741
:10519400980D0020014BC01A40117047100D0020DB
:1051A40030B583B005460C46FFF7F4FF01464023B3
:1051B40000932346054A064807F062FC011E01DB02
:1051C40003B030BD2846A047FAE700BFCDCA0000AF
:1051D400C8E3000010B5EFF31184202383F3128891
:1051E400BFF36F8F074A136823F00201116013F0B5
:1051F400010F04D084F31188BFF36F8F10BD07F043
:105204007FFCF7E7C00D002030B10022026042604D
:10521400826001224260704710B5064C4FF48573DA
:1052240022460549054806F097FE4FF4857120464D
:1052340006F089FE74FF0000A4FF000084E800006B
:105244000346032929D8DFE801F0020D1823D3F817
:105254001804C0F3004072B3D3F8183403F0030306
:1052640013707047D3F80C04C0F300401AB3D3F89A
:105274000C3403F0010313707047D3F85C04C0F3DB
:105284000040C2B1D3F85C3403F0010313707047DB
:10529400D3F85404C0F30040704710B5064C40F2F4
:1052A400A74322460549064806F056FE40F2A741A8
:1052B400204606F048FE7047BCFF0000C8EA000024
:1052C40084E8000010B582B0EFF31184202383F347
:1052D4001288BFF36F8F154A136843F002011160FF
:1052E40013F0010F09D1002384F31188BFF36F8FEA
:1052F400B3B907F0F1FB02B010BD0DF107020121B3
:105304004FF05020FFF79CFF9DF80730012B01D090
:105314000023E9E7FFF73AFF07F08EFB0123E3E7F9
:105324000021034807F09AFBE5E700BFC00D002009
:10533400C8E3000010B5C9B2032905D807F036FB4D
:10534400806800F0070010BD054C7F232246054904
:10535400054806F001FE7F21204606F0F4FD00BF5B
:10536400F0FF00003000010084E8000070B505463D
:105374001646CCB2214607F019FB032C0DD8314652
:10538400083007F024FB002806DB2146284607F0F6
:1053940014FB43689847002070BD064C4FF4DF733C
:1053A40022460549054806F0D7FD4FF4DF71204633
:1053B40006F0C9FDF0FF00003000010084E80000A1
:1053C40038B505460C46FFF7E5FE01464022034882
:1053D400FFF7CCFF01462846A04738BDC8E30000CC
:1053E40010B509282FD8DFE800F0051C2E2E2E2E2C
:1053F4002E21171200211A4807F0D8FA836813F0F7
:10540400070F08D10021164807F028FB03E002210A
:10541400134807F023FB10BD0321114807F01EFBBE
:10542400F9E701210E4807F019FBF4E70D4C40F2AF
:10543400DD2322460C490D4806F08EFD40F2DD21A5
:10544400204606F080FD074C40F2ED232246064933
:10545400064806F081FD40F2ED21204606F073FD7A
:10546400C8E30000F0FF0000C8EA000084E8000080
:1054740070B582B00546012807D14FF05023D3F808
:105484001C3403F00303022B36D008F042FE04461A
:1054940010B92B4B1B7873B9EFF31186202383F3D8
:1054A4001288BFF36F8F012494B94FF05023022266
:1054B400C3F808230CE00026F6E7FCB1304607F0F9
:1054C40078F94FF05023D3F81835DBB2012B19D0FB
:1054D4000DF1070200214FF05020FFF7B1FE002824
:1054E400EBD09DF80730022B01D0012DE5D104B398
:1054F40086F31188BFF36F8F02B070BD012007F0EF
:1055040018FBDEE74FF05023D3F80431002BDFD033
:105514004FF050230022C3F80421D3F804210222BF
:10552400C3F81825074A2021C2F8801101229A6085
:10553400CEE74FF050230222C3F80423DCE700BF78
:105544005F0E002000E100E000B585B0CDF800D08A
:10555400CDF804D000230293012303936B46074A3A
:1055640007F0AAFA002805DB4FF4804200236846BE
:1055740003F07AFA05B05DF804FB00BF63CB0000CA
:1055840070B50646002201210520FFF745F91148B0
:1055940001F06EFE104B984219D101F07BFE0024FD
:1055A400032C12D82146304607F000FA054621465E
:1055B400304607F008FA094906F0B5FE002805DB75
:1055C4000123AB601C44E4B2EAE7002070BD6FF035
:1055D4000400FBE7E55300000000AD0B540001009C
:1055E40070B504461C4B0121D3E8EF2FC3E8E01F3C
:1055F4000028F9D142B134B1631EDBB2012B1ED8AD
:105604002046FFF735FF70BD144807F0DCF9054666
:10561400134E3046FFF7F8FD311F2846FDF772FAA6
:105624000028E8DA0F4C40F2912322460E490F4835
:1056340006F092FC40F29121204606F084FC094CCD
:1056440040F2A32322460A49084806F085FC40F2AA
:10565400A321204606F077FC0C0D0020C8E30000CF
:10566400000D0020F0FF000050F4000084E800006A
:10567400C8EA000010B504460A2806D0E1B206487C
:1056840083685B689847204610BD034883685B685D
:105694000D219847F2E700BF04E4000010B5044C64
:1056A4002046FFF76DFC2046FCF7DCF810BD00BF78
:1056B4007956000008B5054808F093FC18B1FFF7C7
:1056C400EDFF002008BD6FF01200FBE704E40000CA
:1056D40028B1012801D103487047002070470248CF
:1056E400704700BFDCE30000F0E3000070B569B16F
:1056F400044616460D464B68B3B1036813B307F06E
:1057040046FA50BBFEB96FF0150022E0164C3F2359
:1057140022461649164806F01FFC164806F01CFCE3
:105724003F21204606F00FFC0F4C4023224612492D
:105734000F4806F011FC114806F00EFC40212046EB
:1057440006F001FC32B123682B602560636843B125
:10575400002070BD6FF01500FBE7002EF3D1002090
:10576400F7E765600020F4E7D400010010010100B0
:1057740084E800001C0101002C010100400101002B
:1057840038B505460468204607F011FA40B104F024
:105794001F032B6064091DD0012C0ED10E4838BDA7
:1057A4000E4C4FF46C7322460D490E4806F0D4FBA0
:1057B4004FF46C71204606F0C6FB084C40F2B93336
:1057C40022460949074806F0C7FB40F2B931204692
:1057D40006F0B9FB0548E2E700288450E8FE000023
:1057E4001CFF000084E80000C8EA00000025845083
:1057F40070B50E461546016821B10C68ACB1A1B96B
:105804000C4612E00C4610E0114C64232246114968
:10581400114806F0A1FB114806F09EFB64212046C6
:1058240006F091FB234621461C4681B18A682A4032
:1058340004D04B68002BE7D030469847002CF1D0B9
:105844002368002BEFD0002CEDD12346EBE770BD8D
:10585400D40001005801010084E800004001010067
:105864002DE9F04786B0884615469946446801F00C
:105874001F07237B47EA4317204607F0AAF90028AD
:1058840053D0B5F5001F2AD00DF10C0A002603965B
:1058940004964946284607F00BFA8DF80C0000964A
:1058A40001960296CDF804A0A36823FA08F313F036
:1058B400010F02D1B5F1A07F18D010346A463946E1
:1058C400204608F0AEF91C4B984231D101223946EA
:1058D400204608F0CAF9002006B0BDE8F087394632
:1058E40004F1100008F0C5F90020F5E7384607F088
:1058F400FBF90028E1D104F110050DF11702394636
:10590400284608F09AF90D4B984203D00DF117037D
:105914000493D2E70DF11701284608F0A2F9064BCB
:105924009842F3D06FF00B00D6E76FF08500D3E711
:105934006FF01500D0E700BF0000AD0B0400AD0B05
:105944002DE9F04389B0074689461446456801F0BD
:105954001F082B7B48EA4318104607F03FF98DF8DF
:105964001E0040F206332340B3F5837F6AD016D875
:10597400062B63D006D9B3F5807F0DD101238DF8B2
:105984001D3024E003B3022B03D104238DF81D3012
:105994001DE06FF015077AE06FF0150777E040F22D
:1059A4000222934252D0B3F5407F03D103238DF8F2
:1059B4001D300CE0B3F5007F03D102238DF81D30B8
:1059C40005E06FF0150762E000238DF81D30012615
:1059D40006FA09F63146384607F00EF9071E56DB7B
:1059E40014F4002F36D06B689E60284607F0F1F857
:1059F400B0B310350DF11F024146284608F01DF9D9
:105A0400064614F4403F46D14146284608F021F9A1
:105A1400404B9E423BD19DF81F10284608F01DF9CB
:105A24003C4B984233D03C4CEC2322463B493C4807
:105A340006F092FAEC21204606F085FA06238DF84A
:105A44001D30C4E707238DF81D30C0E705238DF80A
:105A54001D30BCE714F4802FC7D06B68DE60C4E748
:105A6400C4F340438DF8083014F4803F0CBF012385
:105A740000238DF81030002301930DF11D030093D2
:105A84000DF11E0304AA02A9404607F03CF938466A
:105A940009B0BDE8F08302AA0023029303930493A0
:105AA40005930693059204AA4146284608F0B9F8DE
:105AB400184B984202D06FF01507E8E714F4003F42
:105AC4001AD09DF81D308DF8103014F4803F0CBFAF
:105AD400012300238DF811309DF81E308DF812300B
